{
  "contractName": "TenderMe",
  "abi": [
    {
      "inputs": [],
      "stateMutability": "nonpayable",
      "type": "constructor"
    },
    {
      "inputs": [
        {
          "internalType": "uint256",
          "name": "",
          "type": "uint256"
        }
      ],
      "name": "contractors",
      "outputs": [
        {
          "internalType": "address payable",
          "name": "",
          "type": "address"
        }
      ],
      "stateMutability": "view",
      "type": "function",
      "constant": true
    },
    {
      "inputs": [
        {
          "internalType": "uint256",
          "name": "",
          "type": "uint256"
        }
      ],
      "name": "contracts",
      "outputs": [
        {
          "internalType": "address payable",
          "name": "",
          "type": "address"
        }
      ],
      "stateMutability": "view",
      "type": "function",
      "constant": true
    },
    {
      "inputs": [],
      "name": "organisation",
      "outputs": [
        {
          "internalType": "address",
          "name": "",
          "type": "address"
        }
      ],
      "stateMutability": "view",
      "type": "function",
      "constant": true
    },
    {
      "inputs": [],
      "name": "status",
      "outputs": [
        {
          "internalType": "uint256",
          "name": "",
          "type": "uint256"
        }
      ],
      "stateMutability": "view",
      "type": "function",
      "constant": true
    },
    {
      "inputs": [],
      "name": "tenderCount",
      "outputs": [
        {
          "internalType": "uint256",
          "name": "",
          "type": "uint256"
        }
      ],
      "stateMutability": "view",
      "type": "function",
      "constant": true
    },
    {
      "inputs": [],
      "name": "tenderID",
      "outputs": [
        {
          "internalType": "uint256",
          "name": "",
          "type": "uint256"
        }
      ],
      "stateMutability": "view",
      "type": "function",
      "constant": true
    },
    {
      "inputs": [
        {
          "internalType": "uint256",
          "name": "",
          "type": "uint256"
        }
      ],
      "name": "tenders",
      "outputs": [
        {
          "internalType": "uint256",
          "name": "id",
          "type": "uint256"
        },
        {
          "internalType": "string",
          "name": "tenderName",
          "type": "string"
        },
        {
          "internalType": "string",
          "name": "tenderDescription",
          "type": "string"
        },
        {
          "internalType": "address",
          "name": "userHash",
          "type": "address"
        }
      ],
      "stateMutability": "view",
      "type": "function",
      "constant": true
    },
    {
      "inputs": [],
      "name": "winner",
      "outputs": [
        {
          "internalType": "address",
          "name": "",
          "type": "address"
        }
      ],
      "stateMutability": "view",
      "type": "function",
      "constant": true
    },
    {
      "inputs": [],
      "name": "applyForTender",
      "outputs": [],
      "stateMutability": "payable",
      "type": "function",
      "payable": true
    },
    {
      "inputs": [
        {
          "internalType": "string",
          "name": "_tenderName",
          "type": "string"
        },
        {
          "internalType": "string",
          "name": "_tenderDetails",
          "type": "string"
        }
      ],
      "name": "initTender",
      "outputs": [],
      "stateMutability": "nonpayable",
      "type": "function"
    },
    {
      "inputs": [
        {
          "internalType": "uint256",
          "name": "index",
          "type": "uint256"
        }
      ],
      "name": "chooseContractor",
      "outputs": [
        {
          "internalType": "address",
          "name": "",
          "type": "address"
        }
      ],
      "stateMutability": "nonpayable",
      "type": "function"
    },
    {
      "inputs": [],
      "name": "getStatus",
      "outputs": [
        {
          "internalType": "uint256",
          "name": "",
          "type": "uint256"
        }
      ],
      "stateMutability": "view",
      "type": "function",
      "constant": true
    },
    {
      "inputs": [],
      "name": "getContractors",
      "outputs": [
        {
          "internalType": "address payable[]",
          "name": "",
          "type": "address[]"
        }
      ],
      "stateMutability": "view",
      "type": "function",
      "constant": true
    },
    {
      "inputs": [
        {
          "internalType": "uint256",
          "name": "index",
          "type": "uint256"
        }
      ],
      "name": "getTenderDetails",
      "outputs": [
        {
          "internalType": "uint256",
          "name": "",
          "type": "uint256"
        },
        {
          "internalType": "string",
          "name": "",
          "type": "string"
        },
        {
          "internalType": "string",
          "name": "",
          "type": "string"
        },
        {
          "internalType": "address",
          "name": "",
          "type": "address"
        }
      ],
      "stateMutability": "view",
      "type": "function",
      "constant": true
    }
  ],
  "bytecode": "0x60806040526000600355600060055534801561001a57600080fd5b50336000806101000a81548173ffffffffffffffffffffffffffffffffffffffff021916908373ffffffffffffffffffffffffffffffffffffffff1602179055506001600481905550611365806100726000396000f3fe6080604052600436106100dd5760003560e01c8063466addde1161007f57806353ee895d1161005957806353ee895d146102d9578063876a7e7214610319578063a2d42d2b14610323578063dfbf53ae1461034e576100dd565b8063466addde14610234578063474da79a146102715780634e69d560146102ae576100dd565b80633481a95a116100bb5780633481a95a1461016357806334ec7e2d146101a0578063438b12d1146101c9578063465e1def146101f4576100dd565b806310163b67146100e25780631f0587761461010d578063200d2ed214610138575b600080fd5b3480156100ee57600080fd5b506100f7610379565b6040516101049190610fad565b60405180910390f35b34801561011957600080fd5b50610122610407565b60405161012f9190610fef565b60405180910390f35b34801561014457600080fd5b5061014d61040d565b60405161015a9190610fef565b60405180910390f35b34801561016f57600080fd5b5061018a60048036038101906101859190610e40565b610413565b6040516101979190610f92565b60405180910390f35b3480156101ac57600080fd5b506101c760048036038101906101c29190610dd4565b610452565b005b3480156101d557600080fd5b506101de61054c565b6040516101eb9190610f77565b60405180910390f35b34801561020057600080fd5b5061021b60048036038101906102169190610e40565b610570565b60405161022b949392919061100a565b60405180910390f35b34801561024057600080fd5b5061025b60048036038101906102569190610e40565b6106d0565b6040516102689190610f77565b60405180910390f35b34801561027d57600080fd5b5061029860048036038101906102939190610e40565b610952565b6040516102a59190610f92565b60405180910390f35b3480156102ba57600080fd5b506102c3610985565b6040516102d09190610fef565b60405180910390f35b3480156102e557600080fd5b5061030060048036038101906102fb9190610e40565b61098f565b604051610310949392919061100a565b60405180910390f35b610321610b37565b005b34801561032f57600080fd5b50610338610bfe565b6040516103459190610fef565b60405180910390f35b34801561035a57600080fd5b50610363610c04565b6040516103709190610f77565b60405180910390f35b606060018054806020026020016040519081016040528092919081815260200182805480156103fd57602002820191906000526020600020905b8160009054906101000a900473ffffffffffffffffffffffffffffffffffffffff1673ffffffffffffffffffffffffffffffffffffffff16815260200190600101908083116103b3575b5050505050905090565b60055481565b60035481565b6001818154811061042357600080fd5b906000526020600020016000915054906101000a900473ffffffffffffffffffffffffffffffffffffffff1681565b6001600560008282546104659190611108565b92505081905550604051806080016040528060055481526020018381526020018281526020013373ffffffffffffffffffffffffffffffffffffffff168152506007600060055481526020019081526020016000206000820151816000015560208201518160010190805190602001906104e0929190610c2a565b5060408201518160020190805190602001906104fd929190610c2a565b5060608201518160030160006101000a81548173ffffffffffffffffffffffffffffffffffffffff021916908373ffffffffffffffffffffffffffffffffffffffff1602179055509050505050565b60008054906101000a900473ffffffffffffffffffffffffffffffffffffffff1681565b6007602052806000526040600020600091509050806000015490806001018054610599906111ee565b80601f01602080910402602001604051908101604052809291908181526020018280546105c5906111ee565b80156106125780601f106105e757610100808354040283529160200191610612565b820191906000526020600020905b8154815290600101906020018083116105f557829003601f168201915b505050505090806002018054610627906111ee565b80601f0160208091040260200160405190810160405280929190818152602001828054610653906111ee565b80156106a05780601f10610675576101008083540402835291602001916106a0565b820191906000526020600020905b81548152906001019060200180831161068357829003601f168201915b5050505050908060030160009054906101000a900473ffffffffffffffffffffffffffffffffffffffff16905084565b60008060009054906101000a900473ffffffffffffffffffffffffffffffffffffffff1673ffffffffffffffffffffffffffffffffffffffff163373ffffffffffffffffffffffffffffffffffffffff161461072b57600080fd5b60018281548110610765577f4e487b7100000000000000000000000000000000000000000000000000000000600052603260045260246000fd5b9060005260206000200160009054906101000a900473ffffffffffffffffffffffffffffffffffffffff16600260006101000a81548173ffffffffffffffffffffffffffffffffffffffff021916908373ffffffffffffffffffffffffffffffffffffffff1602179055506001828154811061080a577f4e487b7100000000000000000000000000000000000000000000000000000000600052603260045260246000fd5b9060005260206000200160009054906101000a900473ffffffffffffffffffffffffffffffffffffffff1660066000600454815260200190815260200160002060006101000a81548173ffffffffffffffffffffffffffffffffffffffff021916908373ffffffffffffffffffffffffffffffffffffffff16021790555060016004600082825461089b9190611108565b92505081905550600067ffffffffffffffff8111156108e3577f4e487b7100000000000000000000000000000000000000000000000000000000600052604160045260246000fd5b6040519080825280602002602001820160405280156109115781602001602082028036833780820191505090505b5060019080519060200190610927929190610cb0565b50600260009054906101000a900473ffffffffffffffffffffffffffffffffffffffff169050919050565b60066020528060005260406000206000915054906101000a900473ffffffffffffffffffffffffffffffffffffffff1681565b6000600354905090565b60006060806000600760008681526020019081526020016000206000015460076000878152602001908152602001600020600101600760008881526020019081526020016000206002016007600089815260200190815260200160002060030160009054906101000a900473ffffffffffffffffffffffffffffffffffffffff16828054610a1c906111ee565b80601f0160208091040260200160405190810160405280929190818152602001828054610a48906111ee565b8015610a955780601f10610a6a57610100808354040283529160200191610a95565b820191906000526020600020905b815481529060010190602001808311610a7857829003601f168201915b50505050509250818054610aa8906111ee565b80601f0160208091040260200160405190810160405280929190818152602001828054610ad4906111ee565b8015610b215780601f10610af657610100808354040283529160200191610b21565b820191906000526020600020905b815481529060010190602001808311610b0457829003601f168201915b5050505050915093509350935093509193509193565b33662386f26fc100008173ffffffffffffffffffffffffffffffffffffffff163111610b98576040517f08c379a0000000000000000000000000000000000000000000000000000000008152600401610b8f90610fcf565b60405180910390fd5b6001339080600181540180825580915050600190039060005260206000200160009091909190916101000a81548173ffffffffffffffffffffffffffffffffffffffff021916908373ffffffffffffffffffffffffffffffffffffffff16021790555050565b60045481565b600260009054906101000a900473ffffffffffffffffffffffffffffffffffffffff1681565b828054610c36906111ee565b90600052602060002090601f016020900481019282610c585760008555610c9f565b82601f10610c7157805160ff1916838001178555610c9f565b82800160010185558215610c9f579182015b82811115610c9e578251825591602001919060010190610c83565b5b509050610cac9190610d3a565b5090565b828054828255906000526020600020908101928215610d29579160200282015b82811115610d285782518260006101000a81548173ffffffffffffffffffffffffffffffffffffffff021916908373ffffffffffffffffffffffffffffffffffffffff16021790555091602001919060010190610cd0565b5b509050610d369190610d3a565b5090565b5b80821115610d53576000816000905550600101610d3b565b5090565b6000610d6a610d6584611082565b61105d565b905082815260208101848484011115610d8257600080fd5b610d8d8482856111ac565b509392505050565b600082601f830112610da657600080fd5b8135610db6848260208601610d57565b91505092915050565b600081359050610dce81611318565b92915050565b60008060408385031215610de757600080fd5b600083013567ffffffffffffffff811115610e0157600080fd5b610e0d85828601610d95565b925050602083013567ffffffffffffffff811115610e2a57600080fd5b610e3685828601610d95565b9150509250929050565b600060208284031215610e5257600080fd5b6000610e6084828501610dbf565b91505092915050565b6000610e758383610e81565b60208301905092915050565b610e8a81611170565b82525050565b610e9981611170565b82525050565b610ea88161115e565b82525050565b6000610eb9826110c3565b610ec381856110e6565b9350610ece836110b3565b8060005b83811015610eff578151610ee68882610e69565b9750610ef1836110d9565b925050600181019050610ed2565b5085935050505092915050565b6000610f17826110ce565b610f2181856110f7565b9350610f318185602086016111bb565b610f3a816112de565b840191505092915050565b6000610f52601e836110f7565b9150610f5d826112ef565b602082019050919050565b610f71816111a2565b82525050565b6000602082019050610f8c6000830184610e9f565b92915050565b6000602082019050610fa76000830184610e90565b92915050565b60006020820190508181036000830152610fc78184610eae565b905092915050565b60006020820190508181036000830152610fe881610f45565b9050919050565b60006020820190506110046000830184610f68565b92915050565b600060808201905061101f6000830187610f68565b81810360208301526110318186610f0c565b905081810360408301526110458185610f0c565b90506110546060830184610e9f565b95945050505050565b6000611067611078565b90506110738282611220565b919050565b6000604051905090565b600067ffffffffffffffff82111561109d5761109c6112af565b5b6110a6826112de565b9050602081019050919050565b6000819050602082019050919050565b600081519050919050565b600081519050919050565b6000602082019050919050565b600082825260208201905092915050565b600082825260208201905092915050565b6000611113826111a2565b915061111e836111a2565b9250827fffffffffffffffffffffffffffffffffffffffffffffffffffffffffffffffff0382111561115357611152611251565b5b828201905092915050565b600061116982611182565b9050919050565b600061117b82611182565b9050919050565b600073ffffffffffffffffffffffffffffffffffffffff82169050919050565b6000819050919050565b82818337600083830152505050565b60005b838110156111d95780820151818401526020810190506111be565b838111156111e8576000848401525b50505050565b6000600282049050600182168061120657607f821691505b6020821081141561121a57611219611280565b5b50919050565b611229826112de565b810181811067ffffffffffffffff82111715611248576112476112af565b5b80604052505050565b7f4e487b7100000000000000000000000000000000000000000000000000000000600052601160045260246000fd5b7f4e487b7100000000000000000000000000000000000000000000000000000000600052602260045260246000fd5b7f4e487b7100000000000000000000000000000000000000000000000000000000600052604160045260246000fd5b6000601f19601f8301169050919050565b7f596f7520646f6e2774206861766520656e6f7567682062616c616e63652e0000600082015250565b611321816111a2565b811461132c57600080fd5b5056fea2646970667358221220a3a496c81380f6c835da5271f144f32cdb2390cf83b528589d0ed45186dddb4164736f6c63430008040033",
  "immutableReferences": {},
  "source": "\n// SPDX-License-Identifier: MIT\npragma solidity ^0.8.4;\n\ncontract TenderMe {\n    address public organisation;\n    address payable[] public contractors;\n    address public winner;\n    // bytes32 constant byteText32 = \"Hello World\";\n    uint public status = 0;\n    uint public tenderID;\n    uint public tenderCount = 0;\n\n    mapping (uint => address payable) public contracts;\n\n    constructor() {\n        // Add the organisation as the person initialising the contract\n        organisation = msg.sender;\n        tenderID = 1;\n        // initTender(_tenderName, _tenderDetails);\n    }\n\n    struct Tender {\n        uint id;\n        string tenderName;\n        string tenderDescription;\n        address userHash;\n    }\n\n    mapping (uint => Tender) public tenders;\n\n    // Method to apply for the tender\n    function applyForTender() \n        public\n        onlyEligibleContractor(msg.sender) \n        payable {\n            // Append the address of the contractor applying \n            contractors.push(payable(msg.sender));\n        }\n    \n    function initTender(\n        string memory _tenderName, \n        string memory _tenderDetails\n        ) public {\n            tenderCount += 1;\n            tenders[tenderCount] = Tender(tenderCount, _tenderName, _tenderDetails, msg.sender);\n        }\n\n    \n    // Modifier to check for enough ether to continue\n    modifier onlyEligibleContractor(address _contractor) {\n        require(address(_contractor).balance > 0.01 ether, \"You don't have enough balance.\");\n        _;\n    }\n\n    // Method to choose the contractor \n    function chooseContractor(uint index) \n        public \n        onlyEligibleOrganisation()\n        returns (address){\n        // contractors[index].transfer(address(this).balance);\n        winner = contractors[index];\n        contracts[tenderID] = contractors[index];\n        tenderID += 1;\n        contractors = new address payable[](0);\n        // status = 1;\n        return winner;\n    }\n\n    // Modifier to check for the owner\n    modifier onlyEligibleOrganisation() {\n        require(msg.sender == organisation);\n        _;\n    }\n\n    // Get the status of the tender\n    function getStatus()\n        public\n        view \n        returns(uint) {\n            // Return 0 for in progress, and 1 for declared\n            return status;\n        }\n\n    // Get the list of all the contractors from the pool \n    function getContractors()\n        public \n        view \n        returns(address payable[] memory) {\n            return contractors;\n        }\n    \n    function getTenderDetails(uint index) \n        public \n        view\n        returns(uint, string memory, string memory, address) {\n            return (tenders[index].id, tenders[index].tenderName, tenders[index].tenderDescription, tenders[index].userHash);\n        }\n}",
  "sourcePath": "/Users/neeraj/Desktop/blockchain/tenderme/smart_contract/contracts/Tenderme.sol",
  "compiler": {
    "name": "solc",
    "version": "0.8.4+commit.c7e474f2.Emscripten.clang"
  },
  "schemaVersion": "3.4.7",
  "updatedAt": "2022-05-09T03:03:36.680Z",
  "networkType": "ethereum",
  "devdoc": {
    "kind": "dev",
    "methods": {},
    "version": 1
  },
  "userdoc": {
    "kind": "user",
    "methods": {},
    "version": 1
  }
}